:020000040800F2
:10000000B1AA010000000000000000000000000094
:1000100000000000000000000000000000000000E0
:1000200000000000000000000000000000000000D0
:1000300000000000000000000000000000000000C0
:1000400000000000000000000000000000000000B0
:1000500000000000000000000000000000000000A0
:100060000000000000000000000000000000000090
:100070000000000000000000000000000000000080
:100080000000000000000000000000000000000070
:100090000000000000000000000000000000000060
:1000A0000000000000000000000000000000000050
:1000B0000000000000000000000000000000000040
:1000C0000000000000000000000000000000000030
:1000D0000000000000000000000000000000000020
:1000E000EA510008000000000000000000000000CD
:1000F0000000000000000000000000000000000000
:1001000000000000000000000000000000000000EF
:1001100000000000000000000000000000000000DF
:100120000000000000000000B65B000800000000B6
:1001300000000000000000000000000000000000BF
:1001400000000000000000000000000000000000AF
:100150000000000000000000000000007370043088
:10016000170500001305C5FF8545F605637BB5003F
:1001700089816378B500170500001305C5002E9529
:1001800002859302002073A0027D970200009382F3
:1001900062E773907230976200009382E29A7390E4
:1001A000C27E73E0C07E976200009382A29173903A
:1001B0005230971100189381E181178100181301C3
:1001C00061E417B500001305A5399705001893855C
:1001D00065E3170600181306660163FAC50083225B
:1001E000050023A0550011059105E3EAC5FE17059A
:1001F00000181305A5FF974500189385A51663778A
:10020000B500232005001105E36DB5FE73F0023241
:10021000177500001305A5CA97700000E780C0C5D8
:1002200097700000E78080CD014581459710000060
:10023000E780A00217730000670003C501A073E008
:0C0240000232828073F0023282800000E3
:10028000000000000000F03F0000000000002440DB
:10029000366B20706572666F726D616E6365207279
:1002A000756E20706172616D657465727320666F22
:1002B0007220636F72656D61726B2E00366B2076F3
:1002C000616C69646174696F6E2072756E20706113
:1002D00072616D657465727320666F7220636F72F0
:1002E000656D61726B2E000050726F66696C6520DF
:1002F00067656E65726174696F6E2072756E2070CD
:100300006172616D657465727320666F7220636FD0
:1003100072656D61726B2E00324B20706572666F74
:10032000726D616E63652072756E20706172616DB1
:10033000657465727320666F7220636F72656D619C
:10034000726B2E00324B2076616C69646174696F48
:100350006E2072756E20706172616D657465727366
:1003600020666F7220636F72656D61726B2E000084
:100370005B25755D4552524F5221206C6973742084
:1003800063726320307825303478202D2073686FB5
:10039000756C64206265203078253034780A00005E
:1003A0005B25755D4552524F5221206D6174726913
:1003B000782063726320307825303478202D2073C4
:1003C000686F756C64206265203078253034780A57
:1003D000000000005B25755D4552524F522120738D
:1003E000746174652063726320307825303478201E
:1003F0002D2073686F756C6420626520307825301D
:1004000034780A00436F72654D61726B2053697ACC
:1004100065202020203A2025640A0000546F746172
:100420006C207469636B732020202020203A2025E3
:10043000640A0000546F74616C2074696D65202833
:1004400073656373293A20256C660A0049746572E6
:100450006174696F6E732F5365632020203A2025E5
:100460006C660A004552524F5221204D757374201C
:100470006578656375746520666F72206174206CA1
:1004800065617374203130207365637320666F7209
:1004900020612076616C696420726573756C7421CB
:1004A00000000000497465726174696F6E732020EA
:1004B00020202020203A20256C750A00474343382D
:1004C0002E322E3000000000436F6D70696C657233
:1004D0002076657273696F6E203A2025730A0000DA
:1004E0002D4F3300436F6D70696C657220666C61CF
:1004F00067732020203A2025730A0000535441439B
:100500004B0000004D656D6F7279206C6F636174F4
:10051000696F6E20203A2025730A000073656564B8
:10052000637263202020202020202020203A2030C9
:1005300078253034780A00005B25645D6372636C53
:10054000697374202020202020203A203078253024
:1005500034780A005B25645D6372636D617472694F
:100560007820202020203A203078253034780A0066
:100570005B25645D63726373746174652020202061
:1005800020203A203078253034780A005B25645DDD
:1005900063726366696E616C2020202020203A20FF
:1005A0003078253034780A00436F727265637420A6
:1005B0006F7065726174696F6E2076616C696461D9
:1005C0007465642E2053656520524541444D452E87
:1005D0006D6420666F722072756E20616E64207289
:1005E00065706F7274696E672072756C65732E002A
:1005F000436F72654D61726B20312E30203A202599
:1006000066202F202573202573000000202F202531
:10061000730000004572726F7273206465746563C5
:100620007465640043616E6E6F742076616C6964FA
:10063000617465206F7065726174696F6E20666F9A
:100640007220746865736520736565642076616CDB
:100650007565732C20706C6561736520636F6D70B8
:10066000617265207769746820726573756C747344
:10067000206F6E2061206B6E6F776E20706C6174DE
:10068000666F726D2E000000256C640A0000000089
:100690000000000080842E41183700081837000839
:1006A000AA370008AA370008D8370008EC06000867
:1006B000F806000804070008100700084C070008A7
:1006C0005807000864070008700700087C07000846
:1006D000840700088C070008940700081C0700081E
:1006E00028070008340700084007000854302E335C
:1006F000652D3146000000002D542E542B2B5471D3
:10070000000000003154332E3465347A00000000BC
:1007100033342E30652D545E00000000352E353008
:1007200030652B33000000002D2E313233652D3221
:10073000000000002D3837652B38333200000000F0
:100740002B302E36652D31320000000033352E352A
:1007500034343030000000002E3132333435303044
:10076000000000002D3131302E3730300000000005
:100770002B302E363434303000000000353031322A
:100780000000000031323334000000002D383734CF
:10079000000000002B31323200000000F63B000860
:1007A000CE3B0008D83B0008E23B0008EC3B0008C9
:1007B000C43B000800000000000000000000000032
:1007C00000000000000000080808080808080000F1
:1007D0001818000000486C241200000000000000FF
:1007E000000000000000002424247F1212127F1257
:1007F000121200000000081C2A2A0A0C1828282AB5
:100800002A1C080800000022251515152A585454E2
:10081000542200000000000C1212120A7625291141
:10082000916E0000000606040300000000000000B6
:1008300000000000004020101008080808080810F8
:1008400010204000000204080810101010101008BA
:10085000080402000000000008086B1C1C6B08085C
:100860000000000000000000080808087F080808D1
:100870000800000000000000000000000000000070
:10088000060604030000000000000000FE00000057
:100890000000000000000000000000000000000058
:1008A00006060000000080404020201010080804C8
:1008B0000402020000000018244242424242424226
:1008C00024180000000000080E080808080808089E
:1008D000083E00000000003C424242202010080474
:1008E000427E00000000003C42422018204040426E
:1008F000221C0000000000203028242422227E2018
:10090000207800000000007E0202021A26404042C9
:10091000221C0000000000382402021A2642424233
:10092000241800000000007E222210100808080889
:10093000080800000000003C4242422418244242C1
:10094000423C0000000000182442424264584040EB
:10095000241C000000000000000018180000000027
:10096000181800000000000000000008000000004F
:1009700000080804000000402010080402040810C9
:10098000204000000000000000007F0000007F0009
:1009900000000000000000020408102040201008A1
:1009A000040200000000003C4242464020101000BB
:1009B000181800000000001C225A555555552D42AC
:1009C000221C00000000000808181414243C2242D5
:1009D00042E700000000001F2222221E2242424263
:1009E000221F00000000007C42420101010101427F
:1009F000221C00000000001F2242424242424242AA
:100A0000221F00000000003F4212121E121202427A
:100A1000423F00000000003F4212121E121202026A
:100A2000020700000000003C222201010171212286
:100A3000221C0000000000E7424242427E42424245
:100A400042E700000000003E0808080808080808FF
:100A5000083E00000000007C101010101010101054
:100A60001010110F0000007722120A0E0A12122233
:100A700022770000000000070202020202020202C6
:100A8000427F000000000077363636362A2A2A2AAE
:100A90002A6B0000000000E346464A4A5252526266
:100AA000624700000000001C224141414141414198
:100AB000221C00000000003F424242423E0202026D
:100AC000020700000000001C2241414141414D53FA
:100AD000321C60000000003F4242423E12122222BD
:100AE00042C700000000007C42420204182040423D
:100AF000423E00000000007F490808080808080876
:100B0000081C0000000000E74242424242424242CA
:100B1000423C0000000000E7424222242414141842
:100B2000080800000000006B494949495555362224
:100B300022220000000000E7422424181818242470
:100B400042E7000000000077222214140808080879
:100B5000081C00000000007E212010100804044240
:100B6000423F00000078080808080808080808083C
:100B70000808780000000202040408080810102089
:100B800020204040001E10101010101010101010E7
:100B900010101E000038440000000000000000009B
:100BA0000000000000000000000000000000000045
:100BB000000000FF00060800000000000000000028
:100BC00000000000000000000000003C42784442A9
:100BD00042FC0000000000030202021A26424242C8
:100BE000261A000000000000000000384402020243
:100BF00044380000000000604040407844424242D7
:100C000064D80000000000000000003C427E0202A8
:100C1000423C0000000000F08808087E0808080830
:100C2000083E0000000000000000007C22221C02A0
:100C30003C42423C000000030202023A4642424269
:100C400042E700000000000C0C00000E0808080835
:100C5000083E000000000030300000382020202036
:100C60002020221E0000000302020272120A161245
:100C7000227700000000000E08080808080808088D
:100C8000083E0000000000000000007F9292929257
:100C900092B70000000000000000003B46424242C4
:100CA00042E70000000000000000003C42424242D7
:100CB000423C0000000000000000001B26424242AF
:100CC000221E020700000000000000784442424259
:100CD000447840E000000000000000774C04040469
:100CE000041F0000000000000000007C42023C40A5
:100CF000423E0000000000000008083E0808080806
:100D00000830000000000000000000634242424240
:100D100062DC000000000000000000E74224241410
:100D20000808000000000000000000EB494955558C
:100D3000222200000000000000000076241818188D
:100D4000246E000000000000000000E7422424148C
:100D500018080807000000000000007E22100808A4
:100D6000447E000000C020202020201020202020D1
:100D70002020C000101010101010101010101010B3
:100D800010101010000608080808081008080808C5
:100D9000080806000C32C20000000000000000003D
:100DA0000000000073746172740000006E6D690AC7
:100DB00000000000747261700A0000000000000072
:100DC000000000000040AF4034540000B05200006A
:100DD000C8530000D0530000C8530000E052000088
:100DE000C8530000D0530000B0520000B0520000C1
:100DF000E0520000D05300002A5400002A540000A2
:100E00002A540000E0520000EA5A0000D4590000C1
:100E1000D4590000D2590000DA590000DA59000014
:100E2000A0590000D2590000DA590000A059000072
:100E3000DA590000D2590000D65A0000D65A0000F4
:100E4000D65A0000A0590000000102020303030368
:100E5000040404040404040405050505050505054A
:100E6000050505050505050506060606060606062A
:100E70000606060606060606060606060606060612
:100E800006060606060606060707070707070707FA
:100E900007070707070707070707070707070707E2
:100EA00007070707070707070707070707070707D2
:100EB00007070707070707070707070707070707C2
:100EC00007070707070707070808080808080808AA
:100ED0000808080808080808080808080808080892
:100EE0000808080808080808080808080808080882
:100EF0000808080808080808080808080808080872
:100F00000808080808080808080808080808080861
:100F10000808080808080808080808080808080851
:100F20000808080808080808080808080808080841
:100F30000808080808080808080808080808080831
:100F40000808080808080808FFFFFFFFFFFFEF7FF9
:100F5000494E4600696E66004E414E006E616E005D
:100F600030000000303132333435363738394142C1
:100F700043444546000000003031323334353637C3
:100F8000383961626364656600000000000000009B
:100F9000000000000000F83F61436F63A787D23F65
:100FA000B3C8608B288AC63FFB799F501344D33F58
:100FB0000000000000001C40000000000000144081
:100FC000000000000000E03F496E66696E697479B8
:100FD000000000004E614E00000000000000000014
:100FE0000000000000000000000000000000000001
:100FF00000000000000000000000000000000000F1
:1010000000000000000000000000000000000000E0
:1010100000000000000000000000000000000000D0
:1010200000000000000000000000000000000000C0
:1010300000000000000000000080E03779C3414359
:10104000176E05B5B5B89346F5F93FE9034F384D2E
:10105000321D30F94877825A3CBF737FDD4F1575DA
:10106000000000000000F03F0000000000002440ED
:1010700000000000000059400000000000408F40C8
:10108000000000000088C34000000000006AF84033
:101090000000000080842E4100000000D012634157
:1010A0000000000084D797410000000065CDCD41CD
:1010B000000000205FA00242000000E876483742AE
:1010C000000000A2941A6D42000040E59C30A2424C
:1010D0000000901EC4BCD64200003426F56B0C43C1
:1010E0000080E03779C3414300A0D8855734764368
:1010F00000C84E676DC1AB43003D9160E458E143C9
:10110000408CB5781DAF154450EFE2D6E41A4B443D
:1011100092D54D06CFF08044F64AE1C7022DB54482
:10112000B49DD9794378EA44050000001900000015
:101130007D000000232D302B20000000686C4C0047
:10114000656667454647000043000000504F53491D
:1011500058000000002020202020202020202828C7
:101160002828282020202020202020202020202067
:1011700020202020208810101010101010101010A7
:1011800010101010100404040404040404040410D7
:101190001010101010104141414141410101010165
:1011A000010101010101010101010101010101012F
:1011B000101010101010424242424242020202023B
:1011C00002020202020202020202020202020202FF
:1011D00010101010200000000000000000000000AF
:1011E00000000000000000000000000000000000FF
:1011F00000000000000000000000000000000000EF
:1012000000000000000000000000000000000000DE
:1012100000000000000000000000000000000000CE
:1012200000000000000000000000000000000000BE
:1012300000000000000000000000000000000000AE
:10124000000000000000000000000000000000009E
:10125000000000000000411106C622C497400000B3
:10126000E78060DA97400000E780A0159740000013
:10127000E78020230564375500080946930504805C
:10128000130545E697400000E780602A37550008BF
:10129000114693050480130565E797400000E78039
:1012A00000293755000815468565130565EA9740FE
:1012B0000000E780C02737150008130545DA9710AE
:1012C0000000E78000E097400000E780C03C01A0FC
:1012D000F367043082801375F50F17130000670061
:1012E00083C5411106C622C426C24AC02A84B284DC
:1012F0002E8997100000E780E0C2CA8522859710EA
:101300000000E780C0C422852244B2400249A6857D
:1013100092444101171300006700E3C713F705016A
:1013200093F7F50011C3D18F130780046387E52E6F
:10133000130780026383E51613F7160009C71841E7
:10134000419B5D8F18C113F7260001CB1041139705
:1013500047001376F6F0518F18C113F7460011CBF2
:1013600018417D761306F60F798E13978700518FFB
:1013700018C113F7860009CB184145767D16798E82
:101380001397C700518F18C113F7060111CB1841ED
:101390003706F1FF7D16798E13970701518F18C11B
:1013A00013F7060211CB1841370610FF7D16798E10
:1013B00013974701518F18C113F7060411CB184139
:1013C000370600F17D16798E13978701518F18C16A
:1013D00013F7060801CB10411397C70112061182BB
:1013E000518F18C113F7061009C75841419B5D8FF3
:1013F00058C113F7062001CB5041139747001376CD
:10140000F6F0518F58C113F7064011CB58417D7645
:101410001306F60F798E13978700518F58C11397D3
:101420004601635A0700584145767D16798E139719
:10143000C700518F58C113973601635B07005841AD
:101440003706F1FF7D16798E13970701518F58C12A
:1014500013972601635B07005841370610FF7D167E
:10146000798E13974701518F58C113971601635B0B
:1014700007005841370600F17D16798E13978701D2
:10148000518F58C113970601635007305841F20736
:10149000120711835D8F58C1828013F7160019C798
:1014A0001841054650C9419B5D8F18C113F62600AF
:1014B00009CA0C411397470050C913F6F5F0518F34
:1014C00018C113F7460019CB1041FD759385F50F30
:1014D000F18D139687004D8E58C910C113F7860001
:1014E00011CB1041C575FD15F18D1396C7004D8EBA
:1014F00058C910C113F7060119CB1041B705F1FF08
:10150000FD15F18D139607014D8E58C910C113F7C3
:10151000060219CB1041B70510FFFD15F18D13968A
:1015200047014D8E58C910C113F7060419CB10415D
:10153000B70500F1FD15F18D139687014D8E58C941
:1015400010C193F5060889C910411397C7014CC90A
:1015500012061182518F18C113F6061011C6584198
:1015600050C9419B5D8F58C113F6062009CA4C41F2
:101570001397470050C913F6F5F0518F58C113F770
:10158000064019CB5041FD759385F50FF18D1396EB
:1015900087004D8E58C950C1056713070780758FA6
:1015A00011CB5041C575FD15F18D1396C7004D8EB9
:1015B00058C950C10567758F19CB5041B705F1FF68
:1015C000FD15F18D139607014D8E58C950C109675D
:1015D000758F19CB5041B70510FFFD15F18D13968E
:1015E00047014D8E58C950C11167758F19CB5041B5
:1015F000B70500F1FD15F18D139687014D8E58C981
:1016000050C12167F98E638106185841F20754C909
:10161000120711835D8F58C1828013F7160019C716
:101620001841054610C9419B5D8F18C113F626006D
:1016300009CA0C411397470010C913F6F5F0518FF2
:1016400018C113F7460019CB1041FD759385F50FAE
:10165000F18D139687004D8E18C910C113F78600BF
:1016600011CB1041C575FD15F18D1396C7004D8E38
:1016700018C910C113F7060119CB1041B705F1FFC6
:10168000FD15F18D139607014D8E18C910C113F782
:10169000060219CB1041B70510FFFD15F18D139609
:1016A00047014D8E18C910C113F7060419CB10411C
:1016B000B70500F1FD15F18D139687014D8E18C900
:1016C00010C193F5060889C910411397C7010CC9C9
:1016D00012061182518F18C113F6061011C6584117
:1016E00010C9419B5D8F58C113F6062009CA4C41B1
:1016F0001397470010C913F6F5F0518F58C113F72F
:10170000064019CB5041FD759385F50FF18D139669
:1017100087004D8E18C950C1056713070780758F64
:1017200011CB5041C575FD15F18D1396C7004D8E37
:1017300018C950C10567758F19CB5041B705F1FF26
:10174000FD15F18D139607014D8E18C950C109671B
:10175000758F19CB5041B70510FFFD15F18D13960C
:1017600047014D8E18C950C11167758F19CB504173
:10177000B70500F1FD15F18D139687014D8E18C93F
:1017800050C12167F98E91E282805841F20714C955
:10179000120711835D8F58C182800CC982804CC9A9
:1017A0008280B7170240135765003E971443854760
:1017B000B397A700D58F1CC38280B7170240135779
:1017C00065003E9714438547B397A700D58F1CC388
:1017D0008280B7170240135765003E971443854730
:1017E000B397A70093C7F7FFF58F1CC38280B70795
:1017F000030437070809011193871720130767703F
:101800003ECC3EC23EC602C802CA3ACE02C002C4A4
:10181000B7160240D842B7177A00094609830D8BE4
:1018200093870720630DC704371702405043544382
:10183000584311820C103D8A2E96034606FFA18262
:101840002D839D8A1D8B2E97AE96054833D6C700F3
:1018500083C506FE034787FE6301050B11CD89464C
:10186000B357B600630AD500751513351500B35785
:10187000E6003305A040E98F3E8505618280D842AD
:101880001316F700635F0606D8561316F700635861
:101890000602D856DC56454693564700A183BD8BB9
:1018A000BD8A1387270085066313C7005147B71702
:1018B0007A0093870720B3D7D702B387E702371799
:1018C00002405857B71602403D8B0507B3D7E702D1
:1018D000D842D4424983139626003D8B63410604C7
:1018E000BD466300D7040907631ED702139717008C
:1018F0003E9706078583BA9705BFB2873E85056187
:101900008280B7160240D842D442B7173D004983BF
:1019100013962600938707903D8BE35306FC1367CD
:1019200007010507B307F70201B7232005002322AB
:1019300005002324050023260500232A0500232C67
:1019400005008280D4419C41984583A8C50003A826
:101950000501D58FD98FD449B3E717011841904DB0
:10196000B3E70701D58F8D6693860604758FD18FF7
:10197000D98F1CC15C4D7D771307F77FF98F5CCD44
:1019800082801C4193E707041CC182804CC5828081
:1019900048454205418182801C410967D98F1CC19D
:1019A0000CC9828008456D8D3335A00082804111BD
:1019B000B717004006C6138707C0630DE5046371BF
:1019C000A702138707406305E50637370140130771
:1019D00007C0630DE5066309F508B2404101828046
:1019E0003707004093060740630ED50893870780AA
:1019F0006308F50AE313E5FE1305004097000000B5
:101A0000E780E0DBB240130500404101170300000E
:101A1000670063DC1305304097000000E78020DAA0
:101A2000B240130530404101170300006700A3DAFC
:101A30001305504097000000E78060D8B2401305BE
:101A400050404101170300006700E3D81305B03090
:101A500097000000E780A0D6B2401305B0304101E6
:101A600017030000670023D71305404097000000CC
:101A7000E780E0D4B2401305404041011703000065
:101A8000670063D51305104097000000E78020D35E
:101A9000B240130510404101170300006700A3D3B3
:101AA0001305204097000000E78060D1B240130585
:101AB00020404101170300006700E3D1C167FD1713
:101AC00023200500231205001CC52316050023074B
:101AD0000500828083D7050003D745001376F5BF44
:101AE0001CD5B7370140938707C0418B6306F504C7
:101AF000FD779387F73FE98FB7060040638ED702E3
:101B00001C41B7160040BD9B1CC11C415D8F18C114
:101B10009C455CD5630DD600184183D7C50013776B
:101B2000F7CF18C1184193F70730D98F1CC15C4912
:101B300093E717005CC98280144183D725003718CA
:101B4000004093F6F6F814C1144193F70706D58FB9
:101B50001CC11C415D8F18C19C455CD5E30906FD85
:101B6000184183D7C500B73601401377F7CF18C1A6
:101B7000104193F70730138706C0D18F1CC1E318BB
:101B8000E5FA83C7E50023A8F6C25C4993E717008E
:101B90005CC982805C45DD8D4CC5828093C5F5FFB4
:101BA0000CC982804111B757004006C6138707C091
:101BB0006302E5066378A702630CF506B7470140A8
:101BC000938707806314F5081305E0309700000041
:101BD000E780E0BEB2401305E0304101170300008A
:101BE000670063BF37470040130707406303E506FC
:101BF00093870780631CF5041305204197000000BC
:101C0000E780E0BBB240130520414101170300000B
:101C1000670063BC1305304197000000E78020BADD
:101C2000B240130530414101170300006700A3BA19
:101C30001305404197000000E78060B8B2401305EB
:101C400040414101170300006700E3B8B240410181
:101C500082801305104197000000E78040B6B24033
:101C6000130510414101170300006700C3B641117D
:101C70003757004022C426C206C6930707C02A84ED
:101C8000AE84630AF50463FDA7026306E5043747E3
:101C900001401307078001456317E4000D459700D5
:101CA0000000E78000B593D71400AA97B3D7970236
:101CB000B2409244C207C1831CC4224441018280C5
:101CC000B7460040938606406307D5001307078098
:101CD0000145E31AE4FC094597000000E78060B184
:101CE000D9B75C4593F7F79F5CC55C45DD8D4CC566
:101CF00082805C457D777D17F98F5CC55C45DD8D05
:101D00004CC582801C4975777D17F98F1CC91C4909
:101D1000DD8D0CC982805C450967D98F5CC58280E6
:101D20005C45DD9BDD8D4CC582805C45ED9BDD8D8A
:101D30004CC5828093F5F51F4CC182805C4993F7B6
:101D4000F7EFDD8D4CC982805C4993F7F7DFDD8DBD
:101D50004CC9828093D7650093F7F73F3E950841C1
:101D60003355B5000589828093D7650093F7F73F17
:101D70003E9518418547B397B700D98F1CC1828023
:101D800013D765001377F73F93D765012A97AA9772
:101D90001043944313D7050185473397E700758FA8
:101DA00019C73395B700718D3335A0008280014586
:101DB000828013D765013A951841C1818547B39751
:101DC000B70093C7F7FFF98F1CC18280B717024095
:101DD0009843B706FFE0B1061367170098C3D843CE
:101DE0003706F7EA7D16758FD8C39843B706F7FE16
:101DF000FD16758F98C39843B706FCFFFD16758FC7
:101E000098C3D843B70601DFFD16758FD8C323A644
:101E1000070294433707FF00C165F18E94C398C74A
:101E200098439386F5FF371602404D8F98C311A053
:101E300099C61C42FD161397E700E35B07FEB71730
:101E4000024098439316E70063D0060AD84337064A
:101E5000C4DF7D16D8C3D843B7160240D8C3D843D1
:101E600013670740D8C3D843718FD8C3D843370608
:101E70002920518FD8C3D8573D76718FD8D7D857DE
:101E80004166130616F1518FD8D7984337060004E0
:101E9000518F98C39C4213974700E35D07FE9C4215
:101EA0003706001037170240D18F9CC21C4393960F
:101EB0002700E3DD06FE144337060001B717024092
:101EC000D18E14C3984393166700E3DD06FED84312
:101ED000B7160240719BD8C3D84313672700D8C3F5
:101EE000DC42A18BF5DF828001A0B70700D18843D7
:101EF0008280B70700D1CC4388438280370700D265
:101F0000230007001205B71700D2A30507003E956E
:101F100063F7A70023A00700C107E3EDA7FE8280B7
:101F2000B71700D285070A053E9585472300F500BF
:101F30008280370700D2834707000605798993F727
:101F4000170E5D8D2300A7008280B70700D203C75C
:101F50000700914705833D8BBA8663F3E7009146FE
:101F6000B71700D28D070A053E958347050013F683
:101F7000F60F2147B397D70093F7F70F118FB3D719
:101F8000D740B395E500CD8F93F7F70F2300F50009
:101F90008280B70700D203C7070005839377C70085
:101FA00085EFB71600D20A058D06AA9683C70600EC
:101FB00021463D8B3307E640B3D7E74013954500F4
:101FC00093F7F70F1375F50FB397E700C98F93F7E2
:101FD000F70F2380F600828001458280F32750307E
:101FE00093F707FC93E737007390573082807D5555
:101FF0008280411122C406C62E8497600000E780CB
:1020000060AE01C989675CC00145B240224441010C
:1020100082807D55DDBF7D151335250082804111FD
:1020200006C697600000E780E0ABB24013351500AC
:102030003305A040410182807D558280B707002092
:102040009387471D9443374700201307073636957B
:10205000636BE50037870020130707806365A700DF
:1020600088C336858280FD563685828001114EC632
:1020700006CE22CC26CA4AC8B28915C22E8433891C
:10208000C500A94403450400050497300000E7801B
:10209000E00B8347F4FF638C9700E31589FEF24061
:1020A00062444E85D2444249B24905618280354539
:1020B00097300000E7808009E31689FCCDB7011155
:1020C00022CC26CA06CE4AC84EC62A849760000093
:1020D000E78020A0AA840DC1B309A40029490345C3
:1020E0000400050497300000E78040068347F4FFB2
:1020F000638C2701E39589FEF240624426854249BC
:10210000D244B24905618280354597300000E780AE
:10211000E003E39689FCCDB7831845001D71A2CC7E
:1021200062DC86CEA6CACAC8CEC6D2C4D6C2DAC0BF
:102130005EDE66DA6AD86ED602CA2A8C40516353D4
:1021400010272EC60146014E01450148B24793763D
:10215000F60F36CA63C9071C630904465840BE8699
:10216000A287031727006319D70009A8D843B246EE
:10217000031727006304D7009C43EDFB814619A099
:10218000A2863A84184014C065FF6380071CD843B8
:10219000050542050317070041819376170081CAA0
:1021A0002587058B4297131807011358080194439C
:1021B00091C6984298C31C409CC214C0B24763C8E1
:1021C0000700138B170093170B01C1873EC6050646
:1021D00042064186E39CC8F693172500B387C741A2
:1021E000C297C207C1833ECE6344B01C1C40A28488
:1021F00003A90700D8430326490083260900D0C35A
:102200002322E90094C3B2472320090063C1070ECB
:10221000DC40B246839727006386D7008440EDF800
:10222000044099CC5C40F2450395070097200000DC
:10223000E78040E284402ACEF5F4044003274900B9
:10224000D4409C40054E2322D900D8C02320F90059
:1022500023A0240101438144814E854F850EA2862F
:1022600081479442850781C6E31DFEFEF2872287DF
:1022700072863684BDC359C651C4032847004840FE
:1022800083160800031F2500831528009398060174
:1022900093D8080193F606F093D88800B3E61601A8
:1022A0002310D80083160500B385E5411398060175
:1022B0001358080193F606F013588800B3E6060198
:1022C0002310D5006350B004A28600407D16630D34
:1022D00003002320D3003683D9FF0DCA0DC8A28680
:1022E0007D160040E31703FEB6843683F5B7DC4065
:1022F000D24683C70700E387D7F28440EDF8044055
:1023000095F03DBFBA86FD171843D1B721F82320B9
:102310000300638CFE05060E6380041E2684814E36
:102320000143814425BF6302042A5840A287034722
:1023300007006399E60099B5D843D24603470700E2
:10234000E30ED7E29C43EDFB15BDD84293071E0078
:10235000139E070103071700135E0E01058B4297BA
:10236000131807011358080191BD8040630D042420
:10237000DC40F2450395070097200000E78080CD00
:1023800000402ACE75F4F6406644D6444649B64924
:10239000264A964A064BF25B625CD25C425DB25DB5
:1023A000256182802EC602CEE352B0E46306041497
:1023B00085473EC493078C023ECC228D01490144DF
:1023C00002C8054AC247EA8D814B85073EC883ADE6
:1023D0000D00850B63850D00A247E39AFBFEA24C1E
:1023E000638C0B0C63870C0E63850D0E832A4D00E6
:1023F00083A94D0083940A0093F7040813FBF407A4
:10240000A1E793D53440BD899397450013F7740035
:10241000DD8D83578C0363070716630347151395F8
:1024200004014181268BBE8597100000E780207D46
:10243000137BFB0793F804F0B3681B01231CAC0269
:1024400093E8080823901A01839A090093F70A0871
:1024500093F4FA07B9E393D53A40BD8993974500C1
:1024600013F77A00DD8D83578C035DCB6309470931
:1024700013950A014181D684BE8597100000E7803C
:10248000007893F4F40793F80AF0B3E81401231CDE
:10249000AC0293E8080823901901B3049B40635AE7
:1024A0009002EE8783AD0D00FD1C6301090223201D
:1024B000F9003E89E3980BF263820C0263830D02FC
:1024C000EE87FD1C83AD0D00E31309FE3E843E89BB
:1024D000D5B7EA87FD1B032D0D00C1BF6E8DE393B9
:1024E0000DEE4247232009008547E301F7D0A247BC
:1024F00086073EC4E31304EC2320000002906245EB
:102500003E8697100000E78060FB8357CC0393144E
:102510000501C184B9E383578C03231EAC02A9BF14
:10252000930620022E8763D4D5001307200283165A
:102530002C0003160C0083254C0103258C01137716
:10254000F70F97100000E78040508357EC03931477
:102550000501C18499E3231FAC0283578C0329BF73
:1025600062453E8697100000E78040F58357CC0314
:10257000131B0501135B0B41A1E783578C03231E3B
:10258000AC0255B5930620022E8763D4D5001307FD
:10259000200283162C0003160C0083254C01032512
:1025A0008C011377F70F97100000E780004A8357DC
:1025B000EC03131B0501135B0B4199E3231FAC02D2
:1025C00083578C038DB572457DBB83270000029035
:1025D000D1473355F502E17723A00500138807089A
:1025E00093860501138785007915931E3500AE9EED
:1025F00023A2D501931F250023910E0023900E01E5
:10260000F69F93884E0063FAD61913888E0063767E
:10261000F81923A6150123A4050098C193C7F7FF55
:10262000FD5823921E012393FE0039CD931306011A
:10263000E17293D30301814893C2F2FF138E8600A7
:102640006371DE05130F4800637DFF0313930801D8
:1026500013530301B34773008E0793F78707137370
:10266000730098C2B3E7670094C11397870023A251
:102670000601D98F2310F8002311580036877A8875
:10268000F2868508E31C15FB1C438DC39547335523
:10269000F502116385467D138328470063F5A60C78
:1026A00018432391D80085061C43FDF7854F8543C9
:1026B000AE8781488145014F050F3E85014708419E
:1026C000050719C1E31DF7FFBE867E86AA8725C7C9
:1026D0002DCEA5CF03AE460003A3470003180E007E
:1026E0008312230003152E00931E080193DE0E01B2
:1026F000137808F093DE8E003368D80123100E01A2
:102700000318030033055540131E0801135E0E0124
:10271000137808F0135E8E003368C801231003019C
:102720006355A0023E889C437D16638D080023A05C
:102730000801C28851FF11CE91CF3E887D169C437F
:10274000E39708FEC285C288F5B736887D179442A4
:10275000E9BFBDF323A00800630F7F02860FA9F92C
:1027600023200000029013980601135808019307D4
:1027700018001843A2073348C80093F70770B3E75F
:10278000070103280700B3F767002391F8008506C7
:10279000E31408F021BF2E858280BA86468801475F
:1027A00069B5197186DEA2DCA6DACAD8CED6D2D433
:1027B000D6D2DAD0DECEE2CCE6CAEAC8EEC6130143
:1027C00001811305E10597100000E780E0E605456B
:1027D00097100000E780E03D0567140813070782A3
:1027E0003697FD77BA972396A77E09453EC4971082
:1027F0000000E780003CA2472397A77E0D45971075
:102800000000E780003BA2472398A77E1145971060
:102810000000E780003A2ADC154597100000E780A9
:1028200040396306057613781500AA872ADE4286AA
:102830008566938606820C087D77AE9636973AC4F5
:102840000327C77E6309071485466311D702224711
:102850000317077F01EFA246373715341307574197
:1028600023A6E67E130760062398E67E056413041C
:10287000048204082694FD75A29513F727008010A2
:10288000B336E0002EC423AA857E231E010493F5EF
:1028900047003305D80081C50505420541819306EF
:1028A000007D33D5A602FD7881462ADA6316086ECC
:1028B000631A07706390057075EA631F0710918BA8
:1028C0008DC30567130707821408FD773697BA97FB
:1028D00042568395C77E52553EC497100000E7804C
:1028E00040DDE25763930714B707000803AA0728DF
:1028F00083AA472885677D7993870782140813097F
:10290000C97EB69705473E9993172700BA97860761
:102910003EDC97100000E78040C9E25482CA82CCB6
:102920000144B1C085454A8597F0FFFFE780007FED
:102930008355410597100000E780602C231AA104FD
:10294000FD554A8597F0FFFFE780407D835541059F
:1029500097100000E780A02A231AA1046301046AEB
:102960000504E39184FC97100000E780A0C697104F
:102970000000E780C0C897100000E78080C9528639
:10298000D6862A84AE8497400000E780E0C9635E63
:102990000506625795BF22470317077FE31807EC28
:1029A000A246130760062398E67EC9B5056714089A
:1029B000130707823697FD77BA970396C77E83A5DC
:1029C000877F3EC497000000E780C0C0F257AAC0CE
:1029D00013F72700E30507EE0567140813070782BE
:1029E0003697FD77BA973EC422478397E77E5255C4
:1029F0000316C77E8325C77FC2075D8ED40097105C
:102A00000000E78040AEF2575DBD2285A685974065
:102A10000000E7804019AD4709C5A947B3D7A70211
:102A200085076257B307F7023EDC97100000E78086
:102A3000C0B785676259FD7493870782180893842D
:102A4000C47EBA9782CA82CC0144BE94630309044F
:102A50008545268597F0FFFFE780406C835541054B
:102A600097100000E780A019231AA104FD552685C0
:102A700097F0FFFFE780806A8355410597100000BB
:102A8000E780E017231AA1046305041E0504E3117F
:102A900089FC97100000E780E0B397100000E78002
:102AA00000B605671408130707823697FD77BA97B3
:102AB0002A8A0395C77E81453EC497100000E780AF
:102AC0006059A247AA850395E77E97100000E7802A
:102AD0006058A247AA850395077F97100000E780FA
:102AE0006057AA850315410397100000E7808056C0
:102AF000A167938757B0AA89630FF55E63FDA7129C
:102B00002569930729A0630FF558BD679387579FE1
:102B1000631AF518370500081305853197F0FFFF94
:102B2000E780205A096B130B7BFDB96A8D471309A7
:102B3000A9E35A8C938A4A713EC6B704002083A742
:102B4000841D014D814C638D075C05671307078267
:102B50001408FD773697BA973EC4856B25A822479F
:102B6000B30794018A07BA97DE9783D7C782B388E1
:102B7000A70113871C001394080183A6841D4180BC
:102B8000931C0701131D040193DC0C01135D0D411F
:102B900063F0DC1213944C002247B30794018A07B8
:102BA000BA97B38DFB0083A6CD8023960D82858ACC
:102BB00085C603D66D8263015603B7070008D68623
:102BC000E6851385073797500000E78020E883D615
:102BD000CD8285062396DD822247B30794018A07BA
:102BE000BA97B38DFB0083A6CD8013F6260015C6D9
:102BF00003D68D8263038603B7070008DA86E6856D
:102C00001385073A97500000E78040E403D6CD8251
:102C100083A6CD8005062396CD82918AA9D2A247AC
:102C200066940A043E945E940356A482631A2605B1
:102C30008357C4822DBF89679387278F6308F54820
:102C4000156B9307FBEA631FF504370500081305AE
:102C5000852E97F0FFFFE780C046130B8B60396924
:102C60009D6A89471309495A5A8C938A9AA73EC686
:102C7000E9B5231BA1048547E30DF9E00544C9BB71
:102C8000B70700081385473DCA86E68597500000C0
:102C9000E780C0DB8357C4828507C207C183231640
:102CA000F482F1B54164FD577D143EC6B70400209F
:102CB00097100000E7802051D2552A94370500086C
:102CC0001305454097500000E78040D837050008BD
:102CD000D2851305C54197500000E78020D7528563
:102CE00097100000E780E0922A8637050008AE863C
:102CF0001305454397500000E78040D55285971053
:102D00000000E780009142040146814641809740DF
:102D10000000E78080866354A00483A7841D625569
:102D20003305F50297400000E780A0ED2A8C52851C
:102D3000AE8C97100000E780C08D2A86AE86628533
:102D4000E68597300000E78000272A8637050008CF
:102D5000AE861305C54497500000E78020CF52850A
:102D600097100000E780E08AB707000803A68728CD
:102D700083A6C72897400000E780008B634805289A
:102D800083A7841DE255370500081305454AB3851E
:102D9000F502370B0008370C0008B70A0008420498
:102DA000418497500000E78060CA3705000893050A
:102DB000CB4B1305854C97500000E78020C93705A1
:102DC000000893050C4E1305454E97500000E78010
:102DD000E0C7370500089385CA4F13054550975043
:102DE0000000E780A0C637050008CE851305C55151
:102DF00097500000E78080C5725793771700638F64
:102E00000716056783A7841D1307078214087D79B9
:102E10003697014DB70C00083A998569638D071004
:102E200093174D00EA978A07CA97CE9703D6678211
:102E3000EA8513858C5397500000E78020C1050D6B
:102E400083A7841D420D135D0D01E36BFDFC7257DA
:102E500093762700B9C6E5C30567130707821408F0
:102E6000FD773697BA97814CB70900083EC40569CB
:102E700093974C002247E6978A07BA97CA9703D6DA
:102E80008782E6851385495597500000E78000BC8E
:102E9000850C83A7841DC20C93DC0C01E3EAFCFCC7
:102EA0007257118B21C705671307078214087D79B4
:102EB0003697014DB70C00083A998569ADCF931745
:102EC0004D00EA978A07CA97CE9703D6A782EA856C
:102ED00013850C5797500000E78040B7050D83A776
:102EE000841D420D135D0D01E36BFDFCA9C7056751
:102EF000130707821408FD773697BA97814CB709F4
:102F000000083EC4056993974C002247E6978A075C
:102F1000BA97CA9703D64782E6851385C958975052
:102F20000000E780A0B2850C83A7841DC20C93DC4F
:102F30000C01E3EAFCFC6DC4635A800A3705000803
:102F40001305456197F0FFFFE780A0171305E10522
:102F500097000000E78080751301017FF65001455E
:102F60006654D6544659B659265A965A065BF64BBD
:102F7000664CD64C464DB64D09618280937627004B
:102F800083A7841DE39906EC118B11FF85B79D473C
:102F90003EDE0546054869B88566000893860682C8
:102FA000A296C696801036C423AC867E8546E3037F
:102FB000079009A8B386A6028C10AE9636D8E30E09
:102FC000068EEDB23388A60280100408FD788506CF
:102FD000C206C18222980564130404822694469492
:102FE00022C4232E047FE389058CE9B73705000846
:102FF0001305456297F0FFFFE780A00C81BF231BFC
:10300000A1048547E381F496054429BA37050008F1
:103010001305454697F0FFFFE780A00A05048DB32E
:10302000370500081305855A97F0FFFFE780600910
:1030300032478D47E31CF7F083A7841D62553305A3
:10304000F50297400000E780C0BB2A845285AE8419
:1030500097000000E780E05B2A86AE862285A68581
:1030600097300000E78020F52A8637050008AE86F5
:1030700093070C4E1307CB4B1305055F97500000C9
:10308000E780C09C370500089385CA4F1305C560CB
:1030900097500000E780809B294597500000E7800B
:1030A000C09F6DB537050008316B13050529130B5B
:1030B0002BE51969B56A97F0FFFFE78080001309D7
:1030C00079E45A8C938A0A4B02C685BC37050008FE
:1030D0001305453497F0FFFFE780A0FE2569B96A24
:1030E0009147130949D8130B7074130C7074938AA9
:1030F0001A3C3EC699B4370500081305C52B97F056
:10310000FFFFE78000FC056B130B9B1911698D6AAB
:1031100085471309F99B5A8C938A0A343EC631BC01
:10312000014479B65D715AD886C67D7BA2C4A6C219
:10313000CAC04EDE52DC56DA5ED662D466D26AD09F
:103140006ECE32C4336B670163000534931B1500E8
:10315000B308A0402E8D131C0701B30576013289F8
:10316000939E18002A83B684135C0C012E860148B6
:103170008A083385CE00AA8783D607008907E2969E
:10318000239FD7FEE39AC7FE1304180033061541A8
:10319000630483002288F1BF330F8040931D240015
:1031A000EA896A85014E13132F00B388BE002A8670
:1031B000C6878396070011068907B386E602232E89
:1031C000D6FEE398B7FE93071E006E95B385684060
:1031D00063040E013E8ED1BFB30ABD01D6880145FE
:1031E00081470146814E0E0F330E1301F28639A03E
:1031F000420591064185BA876385160398424205C8
:103200004181B3A7E7003A969305A5003E95E351A7
:10321000CBFE13950501910641850146BA87E39FD0
:1032200016FD93861E00B308EE416304D801B68EE6
:1032300065BF814597100000E780C0E12A8A6E864D
:1032400081456A8597400000E78060D2A2483385B7
:1032500074016A88A687C68601460397060083958F
:103260000700890789063307B7023A96E317F5FE88
:103270002320C8001108DE98E39E0AFD6A830145F9
:103280008147814681489A85014601A84205050685
:1032900041859105BA87637686029841420541814E
:1032A000B3A7E700BA961308A5003E95E350DBFEEE
:1032B000131508010506418581469105BA87E36E1D
:1032C00086FC85086E93E3E088FCD28597100000A9
:1032D000E78040D82AC6114A6316041AA24C6A8EA7
:1032E000814A72855286814597400000E78020C858
:1032F0002A8E2A88A68801454686E68681450147AA
:1033000083970600031F060005078906B387E703B6
:103310005E96BE95E36687FE2320B800050511087A
:103320008908E36B85FC850A6E9EDE9CE3EB8AFAD6
:103330006A8301458147814681489A85014601A8F3
:103340004205050641859105BA8763768602984154
:1033500042054181B3A7E700BA961308A5003E9540
:10336000E350DBFE131508010506418581469105F2
:10337000BA87E36E86FC85086E93E3E088FCB2456D
:10338000814A97100000E780E0CCA24C2AC6528602
:1033900081456A8597400000E78060BD268E6A837C
:1033A0008148F285668601458146039705008317AB
:1033B000060085060906B387E702DE9513D7274086
:1033C00095873D8B93F7F707B307F7023E95E3EE3A
:1033D00086FC2320A30085081103090EE3E388FC83
:1033E000850A6E9DDE9CE3E48AFA014581478146A9
:1033F0008148CE85014601A8420505064185910513
:10340000BA8763768602984142054181B3A7E700F7
:10341000BA961308A5003E95E350DBFE131508018C
:103420000506418581469105BA87E36E86FC8508CD
:10343000EE99E3E088FCB24597100000E78080C178
:103440000146CA87814603D70700890785063307E7
:103450008741239FE7FEE3E886FE05065E99E36267
:1034600086FEB6402644420596440649F259625A01
:10347000D25A425BB25B225C925C025DF24D4185A6
:10348000616182806E8A99BD814597100000E78056
:1034900060BCAA85014597100000E780A0BBAA8503
:1034A000014597100000E780E0BAAA850145971012
:1034B0000000E78020BA75B7411122C42E873284FC
:1034C0004C4514455041084106C697000000E7806E
:1034D000A0C5A2852244B240410117130000670035
:1034E00063B7411122C626C44AC22A8811E20546A2
:1034F0009383F5FF93F3C3FF938443000145631463
:10350000080069A83A8513071500B307E7028E077C
:10351000E3EA07FFB302A5022A898602B3835400B7
:1035200031CD416E131415009E8F014F0548B38EA7
:1035300074407D1EFE8581483306060393170801FB
:10354000C1833383BE008905850805081357F641FA
:1035500041833A963376C601198E3387C7004207F6
:103560004183BA97239FE5FE93F7F70F2310F300EB
:10357000E3E4A8FC050FA29FE36EAFFAB387530004
:10358000FD173244F19B9107C4C223A0260123A456
:103590007600DCC6A24412494101828099037D591C
:1035A0007D558942BDBF411106C697F0FFFFE780F8
:1035B00080946D46814697200000E7804066B240C7
:1035C000B707002023A4A72A23A6B72A4101828097
:1035D000411106C697F0FFFFE780E0916D468146F6
:1035E00097200000E780A063B240B707002023A027
:1035F000A72A23A2B72A41018280B707002003A58A
:10360000072AB707002083A7872A1D8D82804111D2
:1036100006C697300000E780C05EB707000803A623
:10362000076983A6476997300000E780C098B240D9
:1036300041018280011106CE22CC26CA4AC84EC65C
:103640002A8497F0FFFFE780008B2A891305803ECC
:10365000AE8997200000E78000C197F0FFFFE78068
:1036600080896D46814697200000E780405BAA84F0
:103670006D4681464A85CE8597200000E780205A16
:10368000B385A440370500081305856897400000FE
:10369000E780C03B85472300F400F2406244D244F7
:1036A0004249B24905618280230005008280930867
:1036B000F5FF8547B28F63F717131386150042068F
:1036C000418293777600F5174111C207B7020008CF
:1036D00037080008370F0008B70E0008370E00083B
:1036E0001357360022C626C49145C1838146938272
:1036F000C26C13088869130FCF6AA143938ECE6DF5
:10370000130ECE6B1303C0020D8B63E4F5088A071A
:10371000C2979C430A0782877297050642069387E1
:1037200096001843418263FB170921448344070034
:10373000FE962380960083441700A380960083445E
:1037400027002381960083443700A38196006304F9
:10375000B402834447002382960083445700A38227
:103760009600834467002383960063167400034722
:103770007700A383E600A29623806600BE86937737
:103780007600F517C20713573600C1830D8BE3F09F
:10379000F5F80A0705061697420693875600184360
:1037A000418263FD1701114451B705067697420621
:1037B0009387960018434182E3E917F763F0A60266
:1037C0003244A2443306D54081453385DF004101B0
:1037D000173300006700A3797A9781B73244A24477
:1037E0004101828081463306D54081453385DF0023
:1037F000173300006700A3771C4183C60700638668
:1038000006221308C002138717006386062183A8C7
:103810000500138606FD1376F60F25438508636BB6
:10382000C30823A0150183C6170063890610890702
:1038300063850611138606FD1308E002A5481303ED
:10384000C0021376F60F6383060363EAC808834653
:103850001700138617003E87EDC26383661EB2878A
:10386000138606FD1376F60FE39106FF944985064D
:1038700094C9834617006382061C1307C00213868F
:1038800017006387E61813085004A5481303C00205
:10389000138706FD93F6F60D1377F70F6382060B79
:1038A00063F9E812D449328785478506D4C918C11F
:1038B0003E8582801306B002638BC6021306D002D7
:1038C0006387C6021306E002638FC610D44123A0AB
:1038D000150185478506D4C118C13E85828094496B
:1038E0003E878547850694C918C13E85828023A0FE
:1038F000150183C81700638D081213872700638999
:1039000008139045938608FD93F6F60F25480506A3
:10391000637BD8009306E0026382D80E90C585478A
:1039200018C13E85828090C583C6270081CA1306D0
:10393000C00293071700E39FC6EE3E8791476DB71D
:10394000D8490507D8C983C71700E9CF1308C002B3
:10395000130716006389070DD445938757FD93F726
:10396000D70F8506D4C589C7854718C13E85828093
:1039700083471600D5C7130726006383070B944DB2
:10398000938707FD93F7F70F8506A54894CDE3EDE0
:10399000F8FC83462600D9C293073600638F0607DA
:1039A00025469308C002938606FD93F6F60F6378CA
:1039B000D600D4413E8785478506D4C135B78346B6
:1039C0001700138817003E87A9CA63851607C287A8
:1039D000D9BF83C6170013071600B28795CA638A3A
:1039E00066023A8675B523A0150183C6170095C2F5
:1039F00013862700638E0601BA8771B590C583C60A
:103A0000270081CA9307C00213061700E396F6FE4B
:103A100032879547D1BD8147C1BD3E879D47E9B5F6
:103A20009947D9B532878D47C1B53E8781476DBD6E
:103A300089475DBD42879D4745BD3E8795476DB52A
:103A40003287914755B51971A2DCA6DACAD8CED60D
:103A5000D2D4DAD0DECE86DED6D22E8483C505005F
:103A6000041802D822C623A2040023A4040023A61B
:103A7000040023A8040023AA040023AC040023AEFE
:103A8000040002C802CA02CC02CE02D002D202D482
:103A900002D6AA8B328B368A3A89BE896382051098
:103AA000930AC100A685568597000000E78000D5DF
:103AB0009C080A053E953247832705FC034707000B
:103AC00085072320F5FC79FF22C6A29B83450400CD
:103AD000637D740D9306C002A28733C76501638FAF
:103AE000D5002380E700B247CA973EC663FC770142
:103AF00083C5070033C76501E395D5FECA973EC667
:103B0000E3E877FF8347040022C6930AC10095C704
:103B1000A685568597000000E78040CE9C080A05E0
:103B20003E953247832705FC03470700850723207E
:103B3000F5FC79FF22C6637174039306C0028347C4
:103B4000040033C747016388D7042300E4003244EC
:103B50004A9422C6E36574FF000826890840CE8592
:103B6000110497000000E7806020AA850325090062
:103B7000110997000000E780601FAA89E39084FE86
:103B8000F6506654D6544659B659265A965A065B8C
:103B9000F64B096182804A9422C6E36274FB6DBFD2
:103BA000B30BA400E36874F345BFBDF175B7954747
:103BB00063E3A704B70700089387C7790A053E9512
:103BC0001C418287B707002003A5071F8280B70723
:103BD000002003A5871E8280B707002003A5C71E0B
:103BE0008280B707002003A5C71D8280B707002089
:103BF00003A5071E82800145828033C6A500937607
:103C0000F50F058A13D7160093D7150011C66976EC
:103C10000506B18FC207C1833D8F137617008583D8
:103C200013D7260011C669760506B18FC207C18376
:103C30003D8F058B13D63600858311C7697705073D
:103C4000B98FC207C1833D8E058A13D7460085838D
:103C500011C669760506B18FC207C1833D8F058BFA
:103C600013D65600858311C769770507B98FC20738
:103C7000C1833D8E058A13D76600858311C6697698
:103C80000506B18FC207C1833D8F058B9D82858359
:103C900011C769770507B98FC207C18313F71700EA
:103CA00085836307D70069770507B98FC207C1838A
:103CB000218133C6A7001377F50F058A93561700A5
:103CC00013D5170011C6E97785073D8D420541815F
:103CD000A98E858A93572700058191C6E9768506C6
:103CE000358D42054181A98F858B9356370005811B
:103CF00091C7E97785073D8D42054181A98E858A67
:103D000093574700058191C6E9768506358D4205B2
:103D10004181A98F858B93565700058191C7E9771B
:103D200085073D8D42054181A98E858A935767009D
:103D3000058191C6E9768506358D42054181A98FB9
:103D4000858B1D83058191C7E97785073D8D4205E8
:103D500041819377150005816387E700E97785073F
:103D60003D8D42054181828033C8A5009376F50FD1
:103D70001317050113781800418313D6160093D743
:103D8000150063070800E9758505AD8FC207C1837B
:103D90003D8E93751600858313D6260091C5E9756F
:103DA0008505AD8FC207C1833D8E058A93D5360048
:103DB000858311C669760506B18FC207C183BD8DA3
:103DC000858913D64600858391C5E9758505AD8F34
:103DD000C207C1833D8E058A93D55600858311C6DF
:103DE00069760506B18FC207C183BD8D858913D65B
:103DF0006600858391C5E9758505AD8FC207C183CE
:103E00003D8E058A9D82858311C669760506B18F30
:103E1000C207C18313F6170085836307D600E976CE
:103E20008506B58FC207C1832183B3C6E700858AA3
:103E30001377F70F13561700858391C6E976850629
:103E4000B58FC207C1833D8E058A935627008583AF
:103E500011C669760506B18FC207C183BD8E858AFA
:103E600013563700858391C6E9768506B58FC2075C
:103E7000C1833D8E058A93564700858311C66976B6
:103E80000506B18FC207C183BD8E858A13565700C0
:103E9000858391C6E9768506B58FC207C1833D8EBD
:103EA000058A93566700858311C669760506B18F2A
:103EB000C207C183BD8E858A1D83858391C6E9763D
:103EC0008506B58FC207C18393F617008583638784
:103ED000E60069770507B98FC207C1834181B3C581
:103EE000A7001377F50F931605018589C182135634
:103EF000170013D5170091C5E97785073D8D420559
:103F00004181298E058A93572700058111C669765C
:103F10000506318D42054181A98F858B13563700E7
:103F2000058191C7E97785073D8D42054181298E3D
:103F3000058A93574700058111C669760506318DBC
:103F400042054181A98F858B13565700058191C782
:103F5000E97785073D8D42054181298E058A935772
:103F60006700058111C669760506318D42054181DC
:103F7000A98F858B1D83058191C7E97785073D8DC5
:103F8000420541819377150005816387E700E97752
:103F900085073D8D4205418193D786003347F50063
:103FA000058B93F7F70F93D61700058111C7697733
:103FB0000507398D42054181A98E858A13D72700CF
:103FC000058191C6E9768506358D42054181298FA7
:103FD000058B93D63700058111C769770507398DA1
:103FE00042054181A98E858A13D74700058191C674
:103FF000E9768506358D42054181298F058B93D65B
:104000005700058111C769770507398D4205418140
:10401000A98E858A13D76700058191C6E976850642
:10402000358D42054181298F058B9D83058111C7FF
:1040300069770507398D42054181137715000581A0
:104040006307F700E97785073D8D4205418182804E
:1040500033C6A5001377F50F93170501058AC183B1
:104060009356170013D5150011C6E97585052D8DDA
:1040700042054181A98E13F616000581935627004B
:1040800011C6E97585052D8D42054181A98E858A68
:1040900013563700058191C6E9768506358D4205B0
:1040A0004181298E058A93564700058111C669769C
:1040B0000506318D42054181A98E858A1356570028
:1040C000058191C6E9768506358D42054181298EA7
:1040D000058A93566700058111C669760506318DFC
:1040E00042054181A98E858A1D83058191C6E976A5
:1040F0008506358D420541819376150005816387DC
:10410000E60069770507398D42054181A183334770
:10411000F500058B93F7F70F93D61700058111C7AC
:1041200069770507398D42054181A98E858A13D7A4
:104130002700058191C6E9768506358D42054181C6
:10414000298F058B93D63700058111C7697705073D
:10415000398D42054181A98E858A13D74700058193
:1041600091C6E9768506358D42054181298F058BFB
:1041700093D65700058111C769770507398D420528
:104180004181A98E858A13D76700058191C6E9769A
:104190008506358D42054181298F058B9D830581DB
:1041A00011C769770507398D4205418113771500DD
:1041B00005816307F700E97785073D8D4205418159
:1041C000828001458280411122C4370400200327E8
:1041D000C41F26C206C68547AA846310F702B71615
:1041E000004083A7C64037070020F99B23A6F6406E
:1041F0008327472085072322F72037150140914563
:10420000130505C097D0FFFFE780A05989453735D2
:10421000014097D0FFFFE78020796DD9A68537351B
:10422000014097D0FFFFE780A076854537350140F4
:1042300097D0FFFFE78040776DD93735014097D0A1
:10424000FFFFE7802075371501409145130505C034
:1042500097D0FFFFE780A0540327C41F854763075B
:10426000F700B24022449244410182803707002087
:1042700083274720FD172322F720E5F73717004053
:104280008327C740B240224493E717002326F74014
:10429000924441018280011122CC371401404AC866
:1042A00052C42E892A8A8545130504C006CE26CA23
:1042B0004EC6B684B28997D0FFFFE780804E1305C3
:1042C000A00297000000E78040F08545130504C078
:1042D00097D0FFFFE780A04C050A13558A0013759D
:1042E000F50F97000000E78040EE1375FA0F970076
:1042F0000000E78080ED8545130504C097D0FFFFDF
:10430000E780E049850913D589001375F50F9700FB
:104310000000E78080EB13F5F90F97000000E780BD
:10432000C0EA8545130504C097D0FFFFE7806047CA
:104330001305B00297000000E78020E985451305CA
:1043400004C097D0FFFFE7808045690913558900B5
:104350001375F50F97000000E78020E71375F90F3C
:1043600097000000E78060E68545130504C097D0FC
:10437000FFFFE780C042E90413D584001375F50FF1
:1043800097000000E78060E413F5F40F9700000049
:10439000E780A0E3130504C0854597D0FFFFE780C1
:1043A00040406244F240D2444249B249224A130595
:1043B000C002056117030000670023E1797122D470
:1043C00056CA3284B68A130675009386F5004ECE1F
:1043D00052CC5AC85EC662C406D626D24AD09700CE
:1043E0000000E78080EB930704FE370A0008130AF9
:1043F0004A7B93F7F70F920713DB8A00130C0A012D
:10440000B7190140137BFB0F3E9A3E9CB70B00206F
:10441000938909C093FAFA0F83440A00214425A026
:1044200097D0FFFFE780A0375A8597000000E7800C
:10443000C0D97D1456851374F40F97000000E780EF
:10444000C0D885801DCC93F7140085454E85E9FBC7
:1044500003A90B2B97D0FFFFE78060347D14135521
:1044600089001375F50F97000000E78000D61375DB
:10447000F90F1374F40F97000000E78000D58580D2
:1044800079F0050AE31A8AF9B2502254925402597B
:10449000F249624AD24A424BB24B224C4561828079
:1044A00079711305206006D622D497D0FFFFE780EC
:1044B000802F1305306097D0FFFFE780C02E1305D3
:1044C000006097D0FFFFE780002E1305C06037140F
:1044D000014097D0FFFFE780002D1305048093066D
:1044E000000E0D46E14597D0FFFFE78060E391465F
:1044F0000D46130504C0C14597D0FFFFE78040E299
:104500009145130504C097D0FFFFE780402948007C
:1045100097D0FFFFE780A041930740103EC28D4730
:104520003ECC930700204C003EC837350140C147C0
:104530003ECE02C402C602CA97D0FFFFE780C04049
:104540009D453735014097D0FFFFE780204537353F
:10455000014097D0FFFFE78000438D460D461305CD
:1045600004C0C14597D0FFFFE78080DB130504C07E
:104570008D4597D0FFFFE780C0228945130504C011
:1045800097D0FFFFE780E0211305800C9710000013
:10459000E78040DA8945130504C097D0FFFFE78024
:1045A0000020514597100000E780C0D885451305CD
:1045B00004C097D0FFFFE780C01E4545970000006C
:1045C000E780A0C01305400697100000E78080D662
:1045D0008545130504C097D0FFFFE780801C1305B5
:1045E000100297000000E78040BE8545130504C017
:1045F00097D0FFFFE780E01A1305100B970000002B
:10460000E780A0BC8545130504C097D0FFFFE78075
:104610000019154597000000E78020BB854513056C
:1046200004C097D0FFFFE78080171305A003970011
:104630000000E78080B98545130504C097D0FFFFCF
:10464000E780E0151305A00397000000E780E0B7BE
:104650008545130504C097D0FFFFE780801413053C
:10466000200B97000000E78040B68545130504C085
:1046700097D0FFFFE780A012154597000000E78064
:10468000C0B48545130504C097D0FFFFE780201113
:104690001305A00397000000E78020B385451305AC
:1046A00004C097D0FFFFE780800F1305A003970099
:1046B0000000E78080B18545130504C097D0FFFF57
:1046C000E780200E1305300B97000000E780E0AF75
:1046D0008545130504C097D0FFFFE780400C1545C2
:1046E00097000000E78060AE8545130504C097D0B1
:1046F000FFFFE780C00A1305A00397000000E780D2
:10470000C0AC8545130504C097D0FFFFE7802009A2
:104710001305A00397000000E78020AB8545130533
:1047200004C097D0FFFFE780800715459700000081
:10473000E780A0A98545130504C097D0FFFFE78057
:1047400000061305A00397000000E78000A8854538
:10475000130504C097D0FFFFE78060041305A00392
:1047600097000000E78060A68545130504C097D038
:10477000FFFFE78000031305400B97000000E78070
:10478000C0A48545130504C097D0FFFFE780200132
:104790000D4597000000E78040A38545130504C040
:1047A00097D0FFFFE780E0FF1305000C97000000A3
:1047B000E780A0A18545130504C097D0FFFFE780DF
:1047C00000FE1305200697000000E78000A0854545
:1047D000130504C097D0FFFFE78060FC09459700F0
:1047E0000000E780809E8545130504C097D0FFFF39
:1047F000E780E0FA114597000000E780009D8545BD
:10480000130504C097D0FFFFE780A0F91305100C33
:1048100097000000E780609B8545130504C097D092
:10482000FFFFE780C0F71305000C97000000E7804A
:10483000C0998545130504C097D0FFFFE78060F657
:104840001305200C97000000E7802098854513058C
:1048500004C097D0FFFFE78080F435459700000043
:10486000E780A0968545130504C097D0FFFFE78039
:1048700000F3014597000000E7802095854513056A
:1048800004C097D0FFFFE780C0F11305300C9700FC
:104890000000E78080938545130504C097D0FFFF93
:1048A000E780E0EF1305D00897000000E780E09173
:1048B0008545130504C097D0FFFFE78040EE130540
:1048C000A00697000000E78040908545130504C0CE
:1048D00097D0FFFFE780E0EC1305400C9700000045
:1048E000E780A08E8545130504C097D0FFFFE780C1
:1048F00000EB1305D00897000000E780008D854588
:10490000130504C097D0FFFFE78060E91305E00EB0
:1049100097000000E780608B8545130504C097D0A1
:10492000FFFFE78000E81305500C97000000E780C8
:10493000C0898545130504C097D0FFFFE78020E6B6
:10494000394597000000E78040888545130504C07D
:1049500097D0FFFFE780E0E41305000E970000000A
:10496000E780A0868545130504C097D0FFFFE78048
:1049700000E3414597000000E78020858545130549
:1049800004C097D0FFFFE78080E139459700000021
:10499000E780A0838545130504C097D0FFFFE7801B
:1049A00000E0094597000000E78020828545130557
:1049B00004C097D0FFFFE78080DE0D459700000020
:1049C000E780A0808545130504C097D0FFFFE780EE
:1049D00000DD394597F0FFFFE780207F854513050F
:1049E00004C097D0FFFFE78080DB1D4597F0FFFFF5
:1049F000E780A07D8545130504C097D0FFFFE780C1
:104A000000DA094597F0FFFFE780207C8545130514
:104A100004C097D0FFFFE78080D81D4597F0FFFFC7
:104A2000E780A07A8545130504C097D0FFFFE78093
:104A300000D7294597F0FFFFE780207985451305CA
:104A400004C097D0FFFFE78080D5494597F0FFFF6E
:104A5000E780A0778545130504C097D0FFFFE78066
:104A600000D41305700297F0FFFFE78000768545BC
:104A7000130504C097D0FFFFE78060D213057003D1
:104A800097F0FFFFE78060748545130504C097D059
:104A9000FFFFE780C0D0014597F0FFFFE780E0729D
:104AA0008545130504C097D0FFFFE78040CF35450B
:104AB00097F0FFFFE78060718545130504C097D02C
:104AC000FFFFE780C0CD394597F0FFFFE780E06F3B
:104AD0008545130504C097D0FFFFE78040CC4145D2
:104AE00097F0FFFFE780606E8545130504C097D0FF
:104AF000FFFFE78000CB1305100E97F0FFFFE78064
:104B0000C06C8545130504C097D0FFFFE78020C91E
:104B1000414597F0FFFFE780406B8545130504C0D2
:104B200097D0FFFFE780A0C7394597F0FFFFE780E8
:104B3000C0698545130504C097D0FFFFE78020C6F4
:104B40000D4597F0FFFFE78040688545130504C0D9
:104B500097D0FFFFE780A0C40D4597F0FFFFE780E7
:104B6000C0668545130504C097D0FFFFE78020C3CA
:104B70003D4597F0FFFFE78040658545130504C07C
:104B800097D0FFFFE780A0C1194597F0FFFFE780AE
:104B9000C0638545130504C097D0FFFFE78020C0A0
:104BA000094597F0FFFFE78040628545130504C083
:104BB00097D0FFFFE780A0BE214597F0FFFFE78079
:104BC000C0608545130504C097D0FFFFE78020BD76
:104BD000294597F0FFFFE780405F8545130504C036
:104BE00097D0FFFFE780A0BB4D4597F0FFFFE78020
:104BF000C05D8545130504C097D0FFFFE78020BA4C
:104C00001305600297F0FFFFE780205C85451305E0
:104C100004C097D0FFFFE78080B81305600397F0CA
:104C2000FFFFE780805A8545130504C097D0FFFF3A
:104C3000E780E0B6014597F0FFFFE7800059854522
:104C4000130504C097D0FFFFE78060B5354597F0A6
:104C5000FFFFE78080578545130504C097D0FFFF0D
:104C6000E780E0B3394597F0FFFFE78000568545C0
:104C7000130504C097D0FFFFE78060B2414597F06D
:104C8000FFFFE78080548545130504C097D0FFFFE0
:104C9000E78020B11305A00397F0FFFFE780E05203
:104CA0008545130504C097D0FFFFE78040AF154549
:104CB00097F0FFFFE78060518545130504C097D04A
:104CC000FFFFE78000AE1305600397F0FFFFE7806A
:104CD000C04F8545130504C097D0FFFFE78020AC87
:104CE0001305800797F0FFFFE780204E130504C0EF
:104CF000854597D0FFFFE780C0AA1305900297F083
:104D0000FFFFE780804CB250225445618280011140
:104D100026CAAA844AC84EC69306F00493D98400D2
:104D20001306F009814501453719014052C406CEEA
:104D300022CC93F9F90F97F0FFFFE780005693F428
:104D4000F40F130A000A130909C01304000585456E
:104D50004A8597D0FFFFE78080A44E8597F0FFFF3C
:104D6000E780A0467D14268597F0FFFFE780E045A9
:104D700079FC7D1AE31B0AFCF2406244D2444249AA
:104D8000B249224A056182805D7186C6A2C4A6C26C
:104D9000CAC04EDE52DC56DA5AD85ED662D466D22B
:104DA0006AD06ECE3AC6C1C29384E6FF2A8AAE8D1F
:104DB000B28C93F4F40F814A014B1304F00F294C89
:104DC000130D0009130900049389F6FF930BE00FFC
:104DD000638A8406A687054613172600FD173A96B0
:104DE00093F7F70F0606E39987FE33D6CC023376A6
:104DF000860363160B0063D43A0139C6054B636D15
:104E00004D01636BB901B24613060603EE85528568
:104E100097F0FFFFE780C05AFD1493F4F40F850A62
:104E2000210AE39774FBB640264496440649F2599A
:104E3000625AD25A425BB25B225C925C025DF24DD6
:104E400061618280668665B7E3684DFDE366B9FD02
:104E5000B24613060002EE85528597F0FFFFE78009
:104E600020565DBF411106C613054006971000008D
:104E7000E7804080D5BF411122C426C237040020FC
:104E8000C16406C61304441F938404801C40268713
:104E9000A94685073E86814501451CC09700000054
:104EA000E780C0EEE5B7411106C697E0FFFFE78057
:104EB000808FE5BFB7150008411115469385C5DA07
:104EC000054506C697300000E78040C2054597605B
:104ED0000000E78080684111856722C406C6FD177F
:104EE0002A846301F502B71500081546938545DB52
:104EF000054597300000E78060BF2285976000007D
:104F0000E780A06597000000E78000FBE9BF411142
:104F100006C697D0FFFFE780A0EB1305700597D07A
:104F2000FFFFE780E0FD97D0FFFFE780600BB24016
:104F3000410117B3FFFF6700C3308280411122C4D3
:104F4000374401401305048006C626C297D0FFFFF0
:104F5000E78080C5F165130504809385052097D00F
:104F6000FFFFE78000D113050480814597D0FFFF44
:104F7000E78060D813050480814597D0FFFFE78064
:104F8000A0D813050480814597D0FFFFE780A0D506
:104F900013050480814597D0FFFFE78060DA130591
:104FA0000480814597D0FFFFE78040DA1305048035
:104FB000914597D0FFFFE78080D713050480A14576
:104FC000B744014097D0FFFFE780C0D51384048029
:104FD0009945228597D0FFFFE78000D875D91385C2
:104FE00004809305503097D0FFFFE78020D82244FB
:104FF000B240138504809244410117D3FFFF67003C
:10500000C3D1011106CE22CC97D0FFFFE78040DC50
:105010001305700597D0FFFFE78080EE97D0FFFF64
:10502000E78000FC97B0FFFFE780A0211305206018
:1050300097C0FFFFE78020771305E06097C0FFFF70
:10504000E78060761305507097C0FFFFE780A0757A
:105050001305006097C0FFFFE780E07497C0FFFF73
:10506000E78040270D4597C0FFFFE78000270146F6
:1050700085451305800397C0FFFFE780C0260146E2
:1050800089451305A00497C0FFFFE780C0253714AA
:1050900001401305048085460D46914597C0FFFFEA
:1050A000E780002813050480930600200D46E145A3
:1050B00097C0FFFFE780C026930600400D4691454C
:1050C0001305048097C0FFFFE78080253714004058
:1050D00097000000E780C0E61305044097D0FFFF6B
:1050E000E780208D0A8597D0FFFFE780609D8D6760
:1050F0009387F7A28A85130504403EC0A5473EC4A6
:10510000231201002316010097D0FFFFE780C09C07
:1051100013050440854597D0FFFFE78060A813057D
:105120000440854597D0FFFFE78000A797F0FFFF79
:10513000E780403741657D1597000000E78060BD3E
:10514000F24062440561828041114AC03709002063
:105150000327C91F26C206C622C48547AA84631036
:10516000F702B716004083A7C64037070020F99B17
:1051700023A6F6408327472085072322F7203744BC
:1051800001401305048093F5F40F97D0FFFFE780EB
:10519000A0BA130404809D45228597D0FFFFE780C5
:1051A000A0BB75D90327C91F85476309F700B24023
:1051B000224426850249924441018280370700201B
:1051C00083274720FD172322F720F5F337170040E8
:1051D0008327C740B240224493E717002326F740B5
:1051E00026850249924441018280B7050500374572
:1051F00001404111938555301305058006C697D0AF
:10520000FFFFE78020B831C5370700201307871F4D
:105210001C4385661388170063F0D70437450140A7
:1052200083264580370600201306462B93F6F60F9B
:10523000B2972380D700B240B705050023200701AD
:105240009385553013050580410117D3FFFF670093
:1052500083B6B24041018280232007000548814780
:1052600075BF79714AD04ECE5EC606D622D426D2FC
:1052700052CC56CA5AC862C466C2AA8B97D0FFFFE6
:10528000E78060C72A89AE8997D0FFFFE780A0C674
:105290002A84AE846314A900E388B9FEB717000816
:1052A00003A907DC83A947DC370B002097D0FFFF59
:1052B000E78060C4AA87018DB3B7A700858D9D8D57
:1052C00097200000E780A09A2A8A03250B1DAE8A4A
:1052D00097200000E780E0924A86CE869710000073
:1052E000E78060CD2A8C5E85AE8C97200000E78039
:1052F00040912A86AE866285E68597100000E78099
:10530000003E2A86AE865285D68597100000E7803B
:10531000A031E34D05F8B250225492540259F2499B
:10532000624AD24A424BB24B224C924C4561828037
:10533000797122D406D626D22A8497D0FFFFE7803F
:1053400080BB2ACC2ECE97D0FFFFE780C0BA2AC4FC
:105350002EC62247B2476246F2466314E600E38453
:10536000F6FEB707002003A5071D1306803E814601
:105370000981B33585023305850297100000E78067
:10538000008AAA842E8497D0FFFFE780C0B6224708
:10539000B247B306E5403335D5009D8D36C8B38797
:1053A000A5403ECA4246D246E3EF86FC6314D400D1
:1053B000E36B96FCB25022549254456182803707C9
:1053C00000209307472B232A072A23A207003747E9
:1053D0000020232AF72A23A407008280B747002051
:1053E00003A7472B15C5137635003336C000098156
:1053F0002A96370500201305452B11680A062A98BE
:1054000054431C4781CA6375F5003E87E3EA07FFF2
:105410000145828091CF144363DFC604D443E5F68F
:1054200014438C439C47AE96B10614C31CC7E5F7E2
:10543000B70600209386462B9165B695B307C70043
:10544000E3C8F5FC9307C60010C3BA97054548C3E7
:105450001CC763FCF6009386C70063F8B60023A060
:10546000070023A2070023A407001C43E392C7FA06
:105470001305C70082801443C145918E63FED50099
:105480000C439306C600BA96918DD1158CC223A207
:1054900006009CC614C710C385475CC3F9B73747DD
:1054A00000209307C72C23A207002326072C23A63E
:1054B000070023A8070023A0070223AE070023A4A8
:1054C000070223A6070223AE070223AC070223A28A
:1054D000070423A4070423AC070423AA070423A07A
:1054E000070623A2070623AA070623A8070623AE5A
:1054F000070623A00708054798CB23A607000947FE
:10550000D8CBB706002098CF3747002023A206202B
:1055100023A4070023A2070223A0070423AE070445
:1055200023AC0706232CF7348280011126CAB70466
:1055300000209384C41F984006CE22CC4AC84EC691
:1055400052C456C285476310F702B716004003A73E
:10555000C640B707002093874720799B23A6E640E3
:105560009843050798C3374400201304C42C1C48F3
:10557000F5CB5C54F5CB3C44F5CB7C50A1CB8327D9
:1055800004081149A9C798408547630DF7000149F0
:10559000F24062444A85D2444249B249224A924A80
:1055A00005618280B70700209387472003A9070081
:1055B0007D1923A02701E31C09FC3717004083272E
:1055C000C74093E717002326F740D9B70D492A8A29
:1055D0002E85B28AAE8997000000E78060E093854F
:1055E000F9FF93D7F5418D8BAE97898793163900D4
:1055F00013972700B3862641130747F88A06369487
:105600003306E5009306C70710C0AA96130687075E
:1056100054C008C4930647072A96930500040CC299
:10562000AA9623A0460113070707B117B70600B8CB
:105630002A978A079386A60414C3AA9723A0470132
:1056400085471CC8232A5401232C54019840E31198
:10565000F7F437070020130747201C43FD171CC32E
:1056600085FBA1BF0149A5B7054995B7094985B78C
:10567000B707002083A60720B74700209387C72CD1
:1056800013973600158F0A07BA97C8C773005010D2
:105690008280B7170040F95623A8D740370700206B
:1056A0008546232ED71E03A707401367170023A0A4
:1056B000E74082801D71D6C2B70A0020938A0A2073
:1056C00003A70A00A2CC3744002093173700998F14
:1056D0001304C42C8A07A6CACAC8D2C4DAC05EDEC4
:1056E00062DC66DA6AD86ED686CECEC6A29788C34A
:1056F00003A70A00374A0020056B93173700998FDC
:105700008A07A297CCC381440149930B8A2B854D0C
:10571000094D8D4C370C0020130B0B131848814793
:1057200019C758446305072E58447D1758C4585468
:1057300019C718546305072E18547D1718D4384418
:1057400019C778406305072E78407D1778C07850D8
:1057500019C738506305072E38507D1738D00327F6
:10576000040811C7785C25C7785C7D1778DC6390E6
:10577000073497C0FFFFE78000782ACC2ECE97C071
:10578000FFFFE78040772AC42EC62247B247624611
:10579000F2466314E600E384F6FE83290C1DB3D9B8
:1057A000690397C0FFFFE78000752247B247B30641
:1057B000E5403335D5009D8D36C8B387A5403ECA38
:1057C0004247D247E31CF9F4E36D37FD81BF13076D
:1057D0008A2B93972400BA9711479389140098C392
:1057E0006354901013098A2B054B894B0D4C914C37
:1057F000635A900E83268A2B03264900139736009E
:1058000093173600158F918F0A078A072297A29760
:10581000484BCC4B63C3A51E584BDC4B6304F70AC3
:105820006382640D8326490003268900139736009E
:1058300093173600158F918F0A078A072297A29730
:10584000484BCC4B63C0A51C584BDC4B6304F7188A
:105850006383741B832689000326C90013973600CF
:1058600093173600158F918F0A078A072297A29700
:10587000484BCC4B63C3A51E584BDC4B6309F71E4A
:10588000638B84178326C90003260901139736000A
:1058900093173600158F918F0A078A072297A297D0
:1058A000484BCC4B63C0A51C584BDC4B6301F71E27
:1058B000638394150327090193173700998F8A078B
:1058C0003E945C4897C0FFFFE7806062058929D954
:1058D00003278A2B832749002322E900232CFA2A55
:1058E000E39264F5FD1489F483278A2B054523A0F0
:1058F000FA0083A50A0083A70A0003A60A001397EB
:105900003500939637009D8E8A0693173600A2962F
:10591000918F0D8F944E0A078A072297A2973746D8
:105920000020232CE634D4CB63553507130A8A2B89
:1059300003274A00894693173700998F8A07A29751
:10594000D84B7D17D8CB6386D90403278A008D46B0
:1059500093173700998F8A07A297D84B7D17D8CB1A
:105960006389D9020327CA00914693173700998F9C
:105970008A07A297D84B7D17D8CB638CD900032711
:105980000A0193173700998F8A07A297D84B7D1782
:10599000D8CB03A70A0093173700998F8A07A297DD
:1059A0009C433E8F03A70A0093173700998F8A07FD
:1059B0003E945C40BE8FF6406644D6444649B649A4
:1059C000264A964A064BF25B625CD25C425DB25D4F
:1059D0002561828097C0FFFFE78060510589E30958
:1059E00005E603274900832789002324E9002322B1
:1059F000F900E39174E7FD14E5BB232CCA2A2322A6
:105A0000D90039BD2322C9002324D90091B5939729
:105A10002400DE9723A007008504854709BB9397E0
:105A20002400DE9723A0B7018504854709BB93971F
:105A30002400DE9723A0A7018504854709BB93971F
:105A4000240003270408DE9723A0970193891400FC
:105A5000E30807D8CE84854731B32324C900232621
:105A6000D90039BD2326C9002328D90091B597C094
:105A7000FFFFE780C0470589E30405E003278900AD
:105A80008327C9002326E9002324F900D5BB97C04A
:105A9000FFFFE780C0450589E30C05E00327C90047
:105AA000832709012328E9002326F90011B5A689D7
:105AB000FD143DB3000000000000000000000000E5
:105AC0005D7106C012C216C41AC61EC82ACA2ECCE0
:105AD00032CE36D03AD23ED442D646D872DA76DCCE
:105AE0007ADEFEC0F322103496C0F322003096C254
:105AF000F322407C96C4732520348A8597F0FFFFFB
:105B0000E780A03D86427390123496427390023033
